{
  "contractName": "Wiki",
  "abi": [
    {
      "constant": true,
      "inputs": [],
      "name": "contract_address",
      "outputs": [
        {
          "name": "",
          "type": "address"
        }
      ],
      "payable": false,
      "stateMutability": "view",
      "type": "function"
    },
    {
      "anonymous": false,
      "inputs": [
        {
          "indexed": false,
          "name": "ipfs_hash",
          "type": "string[]"
        },
        {
          "indexed": false,
          "name": "author_address",
          "type": "address[]"
        },
        {
          "indexed": false,
          "name": "timestamp",
          "type": "uint256[]"
        }
      ],
      "name": "article_dist_calc",
      "type": "event"
    },
    {
      "constant": false,
      "inputs": [
        {
          "name": "_Title",
          "type": "string"
        },
        {
          "name": "_hash",
          "type": "string"
        }
      ],
      "name": "new_article",
      "outputs": [],
      "payable": false,
      "stateMutability": "nonpayable",
      "type": "function"
    },
    {
      "constant": true,
      "inputs": [],
      "name": "getTitles",
      "outputs": [
        {
          "name": "",
          "type": "string[]"
        }
      ],
      "payable": false,
      "stateMutability": "view",
      "type": "function"
    },
    {
      "constant": true,
      "inputs": [
        {
          "name": "_Title",
          "type": "string"
        }
      ],
      "name": "getHashes",
      "outputs": [
        {
          "name": "",
          "type": "string[]"
        }
      ],
      "payable": false,
      "stateMutability": "view",
      "type": "function"
    },
    {
      "constant": true,
      "inputs": [
        {
          "name": "_Title",
          "type": "string"
        }
      ],
      "name": "getAddress",
      "outputs": [
        {
          "name": "",
          "type": "address[]"
        }
      ],
      "payable": false,
      "stateMutability": "view",
      "type": "function"
    },
    {
      "constant": true,
      "inputs": [
        {
          "name": "_Title",
          "type": "string"
        }
      ],
      "name": "getTimestamps",
      "outputs": [
        {
          "name": "",
          "type": "uint256[]"
        }
      ],
      "payable": false,
      "stateMutability": "view",
      "type": "function"
    },
    {
      "constant": true,
      "inputs": [
        {
          "name": "author_address",
          "type": "address"
        }
      ],
      "name": "getReputation",
      "outputs": [
        {
          "name": "",
          "type": "uint256"
        }
      ],
      "payable": false,
      "stateMutability": "view",
      "type": "function"
    },
    {
      "constant": false,
      "inputs": [
        {
          "name": "author_address",
          "type": "address"
        },
        {
          "name": "author_reputation",
          "type": "uint256"
        }
      ],
      "name": "ReputationUpdate",
      "outputs": [],
      "payable": false,
      "stateMutability": "nonpayable",
      "type": "function"
    },
    {
      "constant": false,
      "inputs": [
        {
          "name": "_author_address",
          "type": "address"
        },
        {
          "name": "value",
          "type": "uint256"
        }
      ],
      "name": "update_reputation",
      "outputs": [],
      "payable": true,
      "stateMutability": "payable",
      "type": "function"
    },
    {
      "constant": false,
      "inputs": [],
      "name": "send_eth",
      "outputs": [],
      "payable": true,
      "stateMutability": "payable",
      "type": "function"
    },
    {
      "constant": false,
      "inputs": [],
      "name": "gasprice",
      "outputs": [
        {
          "name": "",
          "type": "uint256"
        }
      ],
      "payable": true,
      "stateMutability": "payable",
      "type": "function"
    },
    {
      "constant": true,
      "inputs": [],
      "name": "get_account_balance",
      "outputs": [
        {
          "name": "",
          "type": "uint256"
        }
      ],
      "payable": false,
      "stateMutability": "view",
      "type": "function"
    },
    {
      "constant": true,
      "inputs": [],
      "name": "get_contract_balance",
      "outputs": [
        {
          "name": "",
          "type": "uint256"
        }
      ],
      "payable": false,
      "stateMutability": "view",
      "type": "function"
    }
  ],
  "bytecode": "0x608060405230600360006101000a81548173ffffffffffffffffffffffffffffffffffffffff021916908373ffffffffffffffffffffffffffffffffffffffff16021790555034801561005157600080fd5b5061163d806100616000396000f3006080604052600436106100c5576000357c0100000000000000000000000000000000000000000000000000000000900463ffffffff168063333c8aef146100ca5780636be30e54146100f35780636ec232d31461011e57806379863ce91461013c5780637d07ef0b146101795780638ae6007a146101955780638edc091f1461019f578063966b3514146101c85780639694f9fb146101f35780639a4a8eff146102305780639c89a0e21461025b578063bf40fac114610298578063f0bc153a146102d5575b600080fd5b3480156100d657600080fd5b506100f160048036036100ec9190810190610f07565b610300565b005b3480156100ff57600080fd5b5061010861034b565b604051610115919061134e565b60405180910390f35b610126610434565b60405161013391906113de565b60405180910390f35b34801561014857600080fd5b50610163600480360361015e9190810190610f43565b610487565b60405161017091906113bc565b60405180910390f35b610193600480360361018e9190810190610f07565b61054d565b005b61019d6105dc565b005b3480156101ab57600080fd5b506101c660048036036101c19190810190610f84565b6105de565b005b3480156101d457600080fd5b506101dd610ab8565b6040516101ea9190611311565b60405180910390f35b3480156101ff57600080fd5b5061021a60048036036102159190810190610f43565b610ade565b604051610227919061134e565b60405180910390f35b34801561023c57600080fd5b50610245610c35565b60405161025291906113de565b60405180910390f35b34801561026757600080fd5b50610282600480360361027d9190810190610ede565b610c54565b60405161028f91906113de565b60405180910390f35b3480156102a457600080fd5b506102bf60048036036102ba9190810190610f43565b610ca0565b6040516102cc919061132c565b60405180910390f35b3480156102e157600080fd5b506102ea610d9c565b6040516102f791906113de565b60405180910390f35b80600260008473ffffffffffffffffffffffffffffffffffffffff1673ffffffffffffffffffffffffffffffffffffffff168152602001908152602001600020600001819055505050565b60606000805480602002602001604051908101604052809291908181526020016000905b8282101561042b578382906000526020600020018054600181600116156101000203166002900480601f0160208091040260200160405190810160405280929190818152602001828054600181600116156101000203166002900480156104175780601f106103ec57610100808354040283529160200191610417565b820191906000526020600020905b8154815290600101906020018083116103fa57829003601f168201915b50505050508152602001906001019061036f565b50505050905090565b6000805a3a0290503373ffffffffffffffffffffffffffffffffffffffff166108fc829081150290604051600060405180830381858888f19350505050158015610482573d6000803e3d6000fd5b505090565b60606001826040518082805190602001908083835b6020831015156104c1578051825260208201915060208101905060208303925061049c565b6001836020036101000a038019825116818451168082178552505050505050905001915050908152602001604051809103902060020180548060200260200160405190810160405280929190818152602001828054801561054157602002820191906000526020600020905b81548152602001906001019080831161052d575b50505050509050919050565b80600260008473ffffffffffffffffffffffffffffffffffffffff1673ffffffffffffffffffffffffffffffffffffffff1681526020019081526020016000206000015401600260008473ffffffffffffffffffffffffffffffffffffffff1673ffffffffffffffffffffffffffffffffffffffff168152602001908152602001600020600001819055505050565b565b600082908060018154018082558091505090600182039060005260206000200160009091929091909150908051906020019061061b929190610dbb565b50506001826040518082805190602001908083835b6020831015156106555780518252602082019150602081019050602083039250610630565b6001836020036101000a03801982511681845116808217855250505050505090500191505090815260200160405180910390206000018190806001815401808255809150509060018203906000526020600020016000909192909190915090805190602001906106c6929190610dbb565b50506001826040518082805190602001908083835b60208310151561070057805182526020820191506020810190506020830392506106db565b6001836020036101000a03801982511681845116808217855250505050505090500191505090815260200160405180910390206001013390806001815401808255809150509060018203906000526020600020016000909192909190916101000a81548173ffffffffffffffffffffffffffffffffffffffff021916908373ffffffffffffffffffffffffffffffffffffffff160217905550506001826040518082805190602001908083835b6020831015156107d257805182526020820191506020810190506020830392506107ad565b6001836020036101000a038019825116818451168082178552505050505050905001915050908152602001604051809103902060020142908060018154018082558091505090600182039060005260206000200160009091929091909150555060001515600260003373ffffffffffffffffffffffffffffffffffffffff1673ffffffffffffffffffffffffffffffffffffffff16815260200190815260200160002060010160009054906101000a900460ff1615151415610932576000600260003373ffffffffffffffffffffffffffffffffffffffff1673ffffffffffffffffffffffffffffffffffffffff168152602001908152602001600020600001819055506001600260003373ffffffffffffffffffffffffffffffffffffffff1673ffffffffffffffffffffffffffffffffffffffff16815260200190815260200160002060010160006101000a81548160ff0219169083151502179055505b7fa84b66a60e9ef2299f5cdc41e43e0f846db87e83d09231a7746cbb471b42c6aa6001836040518082805190602001908083835b60208310151561098b5780518252602082019150602081019050602083039250610966565b6001836020036101000a03801982511681845116808217855250505050505090500191505090815260200160405180910390206000016001846040518082805190602001908083835b6020831015156109f957805182526020820191506020810190506020830392506109d4565b6001836020036101000a03801982511681845116808217855250505050505090500191505090815260200160405180910390206001016001856040518082805190602001908083835b602083101515610a675780518252602082019150602081019050602083039250610a42565b6001836020036101000a0380198251168184511680821785525050505050509050019150509081526020016040518091039020600201604051610aac93929190611370565b60405180910390a15050565b600360009054906101000a900473ffffffffffffffffffffffffffffffffffffffff1681565b60606001826040518082805190602001908083835b602083101515610b185780518252602082019150602081019050602083039250610af3565b6001836020036101000a0380198251168184511680821785525050505050509050019150509081526020016040518091039020600001805480602002602001604051908101604052809291908181526020016000905b82821015610c2a578382906000526020600020018054600181600116156101000203166002900480601f016020809104026020016040519081016040528092919081815260200182805460018160011615610100020316600290048015610c165780601f10610beb57610100808354040283529160200191610c16565b820191906000526020600020905b815481529060010190602001808311610bf957829003601f168201915b505050505081526020019060010190610b6e565b505050509050919050565b60003373ffffffffffffffffffffffffffffffffffffffff1631905090565b6000600260008373ffffffffffffffffffffffffffffffffffffffff1673ffffffffffffffffffffffffffffffffffffffff168152602001908152602001600020600001549050919050565b60606001826040518082805190602001908083835b602083101515610cda5780518252602082019150602081019050602083039250610cb5565b6001836020036101000a0380198251168184511680821785525050505050509050019150509081526020016040518091039020600101805480602002602001604051908101604052809291908181526020018280548015610d9057602002820191906000526020600020905b8160009054906101000a900473ffffffffffffffffffffffffffffffffffffffff1673ffffffffffffffffffffffffffffffffffffffff1681526020019060010190808311610d46575b50505050509050919050565b60003073ffffffffffffffffffffffffffffffffffffffff1631905090565b828054600181600116156101000203166002900490600052602060002090601f016020900481019282601f10610dfc57805160ff1916838001178555610e2a565b82800160010185558215610e2a579182015b82811115610e29578251825591602001919060010190610e0e565b5b509050610e379190610e3b565b5090565b610e5d91905b80821115610e59576000816000905550600101610e41565b5090565b90565b6000610e6c8235611586565b905092915050565b600082601f8301121515610e8757600080fd5b8135610e9a610e9582611426565b6113f9565b91508082526020830160208301858383011115610eb657600080fd5b610ec18382846115b0565b50505092915050565b6000610ed682356115a6565b905092915050565b600060208284031215610ef057600080fd5b6000610efe84828501610e60565b91505092915050565b60008060408385031215610f1a57600080fd5b6000610f2885828601610e60565b9250506020610f3985828601610eca565b9150509250929050565b600060208284031215610f5557600080fd5b600082013567ffffffffffffffff811115610f6f57600080fd5b610f7b84828501610e74565b91505092915050565b60008060408385031215610f9757600080fd5b600083013567ffffffffffffffff811115610fb157600080fd5b610fbd85828601610e74565b925050602083013567ffffffffffffffff811115610fda57600080fd5b610fe685828601610e74565b9150509250929050565b610ff98161155c565b82525050565b600061100a826114c1565b80845260208401935061101c83611452565b60005b8281101561104e57611032868351610ff0565b61103b8261150e565b915060208601955060018101905061101f565b50849250505092915050565b6000611065826114cc565b8084526020840193506110778361145f565b60005b828110156110a95761108d868354610ff0565b6110968261151b565b915060208601955060018101905061107a565b50849250505092915050565b60006110c0826114d7565b808452602084019350836020820285016110d985611471565b60005b848110156111125783830388526110f4838351611246565b92506110ff82611528565b91506020880197506001810190506110dc565b508196508694505050505092915050565b600061112e826114e2565b808452602084019350836020820285016111478561147e565b60005b8481101561117f578383038852611161838361127c565b925061116c82611535565b915060208801975060018101905061114a565b508196508694505050505092915050565b600061119b826114ed565b8084526020840193506111ad83611490565b60005b828110156111df576111c3868351611302565b6111cc82611542565b91506020860195506001810190506111b0565b50849250505092915050565b60006111f6826114f8565b8084526020840193506112088361149d565b60005b8281101561123a5761121e868354611302565b6112278261154f565b915060208601955060018101905061120b565b50849250505092915050565b600061125182611503565b8084526112658160208601602086016115bf565b61126e816115f2565b602085010191505092915050565b60008154600181166000811461129957600181146112b9576112fa565b607f600283041680865260ff1983166020870152604086019350506112fa565b600282048086526020860195506112cf856114af565b60005b828110156112f1578154818901526001820191506020810190506112d2565b80880195505050505b505092915050565b61130b8161157c565b82525050565b60006020820190506113266000830184610ff0565b92915050565b600060208201905081810360008301526113468184610fff565b905092915050565b6000602082019050818103600083015261136881846110b5565b905092915050565b6000606082019050818103600083015261138a8186611123565b9050818103602083015261139e818561105a565b905081810360408301526113b281846111eb565b9050949350505050565b600060208201905081810360008301526113d68184611190565b905092915050565b60006020820190506113f36000830184611302565b92915050565b6000604051905081810181811067ffffffffffffffff8211171561141c57600080fd5b8060405250919050565b600067ffffffffffffffff82111561143d57600080fd5b601f19601f8301169050602081019050919050565b6000602082019050919050565b60008160005260206000209050919050565b6000602082019050919050565b60008160005260206000209050919050565b6000602082019050919050565b60008160005260206000209050919050565b60008160005260206000209050919050565b600081519050919050565b600081549050919050565b600081519050919050565b600081549050919050565b600081519050919050565b600081549050919050565b600081519050919050565b6000602082019050919050565b6000600182019050919050565b6000602082019050919050565b6000600182019050919050565b6000602082019050919050565b6000600182019050919050565b600073ffffffffffffffffffffffffffffffffffffffff82169050919050565b6000819050919050565b600073ffffffffffffffffffffffffffffffffffffffff82169050919050565b6000819050919050565b82818337600083830152505050565b60005b838110156115dd5780820151818401526020810190506115c2565b838111156115ec576000848401525b50505050565b6000601f19601f83011690509190505600a265627a7a72305820d0173bc4cd57dc10884e09e5aa1ebd50816fac6a091df935165095318d68187e6c6578706572696d656e74616cf50037",
  "source": "pragma solidity ^0.4.21;\npragma experimental ABIEncoderV2;\n//pragma experimental ABIEncoderV2\ncontract Wiki{\n    \n    //string[] Title = new string[](10);\n    //string[] ipfs_hash = new string[](10);\n    string[]  Title;\n    \n    //address payable owner;\n    struct Article{\n        \n        string[] ipfs_hash;\n        address[] author_address;\n        uint256 [] timestamp;\n        \n        // uint256 [] timestamp;\n    }\n    struct Author{\n        \n        uint256 reputation;\n        bool exists;\n    }\n    \n    mapping(string=> Article) const_article_title; //title to author\n    mapping(address => Author) manage_reputation;\n    \n    address public contract_address = address(this);\n   \n    event article_dist_calc(\n        string []  ipfs_hash,\n        address []  author_address,\n        uint256 [] timestamp\n        \n    );\n     \n    \n    function new_article(string memory _Title, string memory _hash) public  {\n        \n        Title.push(_Title);\n        const_article_title[_Title].ipfs_hash.push(_hash);\n        const_article_title[_Title].author_address.push(msg.sender);\n        const_article_title[_Title].timestamp.push(now);\n        if (manage_reputation[msg.sender].exists == false)\n        {\n            manage_reputation[msg.sender].reputation = 0;\n            manage_reputation[msg.sender].exists = true;\n        }\n       \n        emit article_dist_calc(const_article_title[_Title].ipfs_hash, const_article_title[_Title].author_address,  const_article_title[_Title].timestamp);\n    }\n    \n    function getTitles()public view returns(string []  memory ){\n         return Title;\n    }\n    function getHashes(string memory _Title)public view returns(string []  memory){\n         return const_article_title[_Title].ipfs_hash;\n    }\n    function getAddress(string memory _Title)public view returns(address []  memory){\n         return const_article_title[_Title].author_address;\n    }\n    function getTimestamps(string memory _Title)public view returns(uint256 []  memory){\n         return const_article_title[_Title].timestamp;\n    }\n    \n    function getReputation(address author_address)public view returns(uint256 ){\n         return manage_reputation[author_address].reputation;\n    }\n    \n    function ReputationUpdate(address author_address, uint256 author_reputation )public {\n        \n       \n        manage_reputation[author_address].reputation = author_reputation;\n        \n    }\n    \n    \n   \n    \n    // function author_added(address _author_address) public view returns(bool isIndeed) {\n    //     return manage_reputation[_author_address].exists;\n    // }\n\n    // function addAuthor(address _author_address) public returns(bool success) {\n    //     require(!author_added(_author_address));\n    //     manage_reputation[_author_address].reputation = 0;\n    //     manage_reputation[_author_address].exists = true;\n    //     return true;\n    // }\n    \n    function update_reputation(address _author_address, uint256 value) external payable\n    {\n        \n        manage_reputation[_author_address].reputation = manage_reputation[_author_address].reputation + value;\n        // return manage_reputation[_author_address].reputation;\n    }\n    \n    \n    function send_eth () external payable{  //sending ether from account to smart contract\n      \n    }\n    \n    function gasprice() payable public returns (uint256)      //transfer gas price to author\n    {\n        uint cost;\n        cost = tx.gasprice * gasleft();\n        msg.sender.transfer(cost);\n        \n    }\n    \n    function get_account_balance() external view returns (uint){\n        \n        return (msg.sender.balance);\n    }\n    \n    function get_contract_balance() external view returns (uint){\n        \n        return (address(this).balance);\n    }\n    \n}\n\n\n",
  "sourcePath": "/home/rohit/Desktop/wiki_blockchain/contracts/wiki.sol",
  "compiler": {
    "name": "solc",
    "version": "0.4.25+commit.59dbf8f1.Emscripten.clang"
  },
  "schemaVersion": "2.0.2",
  "updatedAt": "2020-10-30T11:47:26.186Z"
}